{"contracts/CertChainRegistry.sol":{"CertChainRegistry":{"abi":[{"anonymous":false,"inputs":[{"indexed":true,"internalType":"bytes32","name":"certHash","type":"bytes32"},{"indexed":true,"internalType":"address","name":"issuer","type":"address"}],"name":"CertIssued","type":"event"},{"anonymous":false,"inputs":[{"indexed":true,"internalType":"bytes32","name":"certHash","type":"bytes32"},{"indexed":true,"internalType":"address","name":"issuer","type":"address"}],"name":"CertRevoked","type":"event"},{"inputs":[{"internalType":"bytes32","name":"certHash","type":"bytes32"}],"name":"issue","outputs":[],"stateMutability":"nonpayable","type":"function"},{"inputs":[{"internalType":"bytes32","name":"","type":"bytes32"}],"name":"records","outputs":[{"internalType":"address","name":"issuer","type":"address"},{"internalType":"uint256","name":"issuedAt","type":"uint256"},{"internalType":"uint256","name":"revokedAt","type":"uint256"}],"stateMutability":"view","type":"function"},{"inputs":[{"internalType":"bytes32","name":"certHash","type":"bytes32"}],"name":"revoke","outputs":[],"stateMutability":"nonpayable","type":"function"},{"inputs":[{"internalType":"bytes32","name":"certHash","type":"bytes32"}],"name":"verify","outputs":[{"internalType":"address","name":"issuer","type":"address"},{"internalType":"uint256","name":"issuedAt","type":"uint256"},{"internalType":"uint256","name":"revokedAt","type":"uint256"}],"stateMutability":"view","type":"function"}],"evm":{"bytecode":{"linkReferences":{},"object":"608060405234801561001057600080fd5b50610750806100206000396000f3fe608060405234801561001057600080fd5b506004361061004c5760003560e01c806301e64725146100515780630f75e81f1461008357806375e366161461009f578063b75c7dc6146100d1575b600080fd5b61006b60048036038101906100669190610507565b6100ed565b60405161007a9392919061058e565b60405180910390f35b61009d60048036038101906100989190610507565b610137565b005b6100b960048036038101906100b49190610507565b6102c4565b6040516100c89392919061058e565b60405180910390f35b6100eb60048036038101906100e69190610507565b610370565b005b60006020528060005260406000206000915090508060000160009054906101000a900473ffffffffffffffffffffffffffffffffffffffff16908060010154908060020154905083565b600073ffffffffffffffffffffffffffffffffffffffff1660008083815260200190815260200160002060000160009054906101000a900473ffffffffffffffffffffffffffffffffffffffff1673ffffffffffffffffffffffffffffffffffffffff16146101db576040517f08c379a00000000000000000000000000000000000000000000000000000000081526004016101d290610622565b60405180910390fd5b60405180606001604052803373ffffffffffffffffffffffffffffffffffffffff168152602001428152602001600081525060008083815260200190815260200160002060008201518160000160006101000a81548173ffffffffffffffffffffffffffffffffffffffff021916908373ffffffffffffffffffffffffffffffffffffffff16021790555060208201518160010155604082015181600201559050503373ffffffffffffffffffffffffffffffffffffffff16817f01f318acef5819b645a14c95448c0950ea9c57711e0cd0faacc6b972c33540d660405160405180910390a350565b6000806000806000808681526020019081526020016000206040518060600160405290816000820160009054906101000a900473ffffffffffffffffffffffffffffffffffffffff1673ffffffffffffffffffffffffffffffffffffffff1673ffffffffffffffffffffffffffffffffffffffff168152602001600182015481526020016002820154815250509050806000015181602001518260400151935093509350509193909250565b3373ffffffffffffffffffffffffffffffffffffffff1660008083815260200190815260200160002060000160009054906101000a900473ffffffffffffffffffffffffffffffffffffffff1673ffffffffffffffffffffffffffffffffffffffff1614610413576040517f08c379a000000000000000000000000000000000000000000000000000000000815260040161040a9061068e565b60405180910390fd5b6000806000838152602001908152602001600020600201541461046b576040517f08c379a0000000000000000000000000000000000000000000000000000000008152600401610462906106fa565b60405180910390fd5b42600080838152602001908152602001600020600201819055503373ffffffffffffffffffffffffffffffffffffffff16817fd583933aeca95bc15deb9ec8cbfb68dde382b5f3e2d26d7a331e7d7e62d3732d60405160405180910390a350565b600080fd5b6000819050919050565b6104e4816104d1565b81146104ef57600080fd5b50565b600081359050610501816104db565b92915050565b60006020828403121561051d5761051c6104cc565b5b600061052b848285016104f2565b91505092915050565b600073ffffffffffffffffffffffffffffffffffffffff82169050919050565b600061055f82610534565b9050919050565b61056f81610554565b82525050565b6000819050919050565b61058881610575565b82525050565b60006060820190506105a36000830186610566565b6105b0602083018561057f565b6105bd604083018461057f565b949350505050565b600082825260208201905092915050565b7f436572746966696361746520616c726561647920657869737473000000000000600082015250565b600061060c601a836105c5565b9150610617826105d6565b602082019050919050565b6000602082019050818103600083015261063b816105ff565b9050919050565b7f4f6e6c7920746865206973737565722063616e207265766f6b65000000000000600082015250565b6000610678601a836105c5565b915061068382610642565b602082019050919050565b600060208201905081810360008301526106a78161066b565b9050919050565b7f416c7265616479207265766f6b65640000000000000000000000000000000000600082015250565b60006106e4600f836105c5565b91506106ef826106ae565b602082019050919050565b60006020820190508181036000830152610713816106d7565b905091905056fea2646970667358221220523a407e97bdab339a88287887f0a3b27fbe3cf3fca3cabb1273297f5be143d664736f6c63430008180033","opcodes":"PUSH1 0x80 PUSH1 0x40 MSTORE CALLVALUE DUP1 ISZERO PUSH2 0x10 JUMPI PUSH1 0x0 DUP1 REVERT JUMPDEST POP PUSH2 0x750 DUP1 PUSH2 0x20 PUSH1 0x0 CODECOPY PUSH1 0x0 RETURN INVALID PUSH1 0x80 PUSH1 0x40 MSTORE CALLVALUE DUP1 ISZERO PUSH2 0x10 JUMPI PUSH1 0x0 DUP1 REVERT JUMPDEST POP PUSH1 0x4 CALLDATASIZE LT PUSH2 0x4C JUMPI PUSH1 0x0 CALLDATALOAD PUSH1 0xE0 SHR DUP1 PUSH4 0x1E64725 EQ PUSH2 0x51 JUMPI DUP1 PUSH4 0xF75E81F EQ PUSH2 0x83 JUMPI DUP1 PUSH4 0x75E36616 EQ PUSH2 0x9F JUMPI DUP1 PUSH4 0xB75C7DC6 EQ PUSH2 0xD1 JUMPI JUMPDEST PUSH1 0x0 DUP1 REVERT JUMPDEST PUSH2 0x6B PUSH1 0x4 DUP1 CALLDATASIZE SUB DUP2 ADD SWAP1 PUSH2 0x66 SWAP2 SWAP1 PUSH2 0x507 JUMP JUMPDEST PUSH2 0xED JUMP JUMPDEST PUSH1 0x40 MLOAD PUSH2 0x7A SWAP4 SWAP3 SWAP2 SWAP1 PUSH2 0x58E JUMP JUMPDEST PUSH1 0x40 MLOAD DUP1 SWAP2 SUB SWAP1 RETURN JUMPDEST PUSH2 0x9D PUSH1 0x4 DUP1 CALLDATASIZE SUB DUP2 ADD SWAP1 PUSH2 0x98 SWAP2 SWAP1 PUSH2 0x507 JUMP JUMPDEST PUSH2 0x137 JUMP JUMPDEST STOP JUMPDEST PUSH2 0xB9 PUSH1 0x4 DUP1 CALLDATASIZE SUB DUP2 ADD SWAP1 PUSH2 0xB4 SWAP2 SWAP1 PUSH2 0x507 JUMP JUMPDEST PUSH2 0x2C4 JUMP JUMPDEST PUSH1 0x40 MLOAD PUSH2 0xC8 SWAP4 SWAP3 SWAP2 SWAP1 PUSH2 0x58E JUMP JUMPDEST PUSH1 0x40 MLOAD DUP1 SWAP2 SUB SWAP1 RETURN JUMPDEST PUSH2 0xEB PUSH1 0x4 DUP1 CALLDATASIZE SUB DUP2 ADD SWAP1 PUSH2 0xE6 SWAP2 SWAP1 PUSH2 0x507 JUMP JUMPDEST PUSH2 0x370 JUMP JUMPDEST STOP JUMPDEST PUSH1 0x0 PUSH1 0x20 MSTORE DUP1 PUSH1 0x0 MSTORE PUSH1 0x40 PUSH1 0x0 KECCAK256 PUSH1 0x0 SWAP2 POP SWAP1 POP DUP1 PUSH1 0x0 ADD PUSH1 0x0 SWAP1 SLOAD SWAP1 PUSH2 0x100 EXP SWAP1 DIV PUSH20 0xFFFFFFFFFFFFFFFFFFFFFFFFFFFFFFFFFFFFFFFF AND SWAP1 DUP1 PUSH1 0x1 ADD SLOAD SWAP1 DUP1 PUSH1 0x2 ADD SLOAD SWAP1 POP DUP4 JUMP JUMPDEST PUSH1 0x0 PUSH20 0xFFFFFFFFFFFFFFFFFFFFFFFFFFFFFFFFFFFFFFFF AND PUSH1 0x0 DUP1 DUP4 DUP2 MSTORE PUSH1 0x20 ADD SWAP1 DUP2 MSTORE PUSH1 0x20 ADD PUSH1 0x0 KECCAK256 PUSH1 0x0 ADD PUSH1 0x0 SWAP1 SLOAD SWAP1 PUSH2 0x100 EXP SWAP1 DIV PUSH20 0xFFFFFFFFFFFFFFFFFFFFFFFFFFFFFFFFFFFFFFFF AND PUSH20 0xFFFFFFFFFFFFFFFFFFFFFFFFFFFFFFFFFFFFFFFF AND EQ PUSH2 0x1DB JUMPI PUSH1 0x40 MLOAD PUSH32 0x8C379A000000000000000000000000000000000000000000000000000000000 DUP2 MSTORE PUSH1 0x4 ADD PUSH2 0x1D2 SWAP1 PUSH2 0x622 JUMP JUMPDEST PUSH1 0x40 MLOAD DUP1 SWAP2 SUB SWAP1 REVERT JUMPDEST PUSH1 0x40 MLOAD DUP1 PUSH1 0x60 ADD PUSH1 0x40 MSTORE DUP1 CALLER PUSH20 0xFFFFFFFFFFFFFFFFFFFFFFFFFFFFFFFFFFFFFFFF AND DUP2 MSTORE PUSH1 0x20 ADD TIMESTAMP DUP2 MSTORE PUSH1 0x20 ADD PUSH1 0x0 DUP2 MSTORE POP PUSH1 0x0 DUP1 DUP4 DUP2 MSTORE PUSH1 0x20 ADD SWAP1 DUP2 MSTORE PUSH1 0x20 ADD PUSH1 0x0 KECCAK256 PUSH1 0x0 DUP3 ADD MLOAD DUP2 PUSH1 0x0 ADD PUSH1 0x0 PUSH2 0x100 EXP DUP2 SLOAD DUP2 PUSH20 0xFFFFFFFFFFFFFFFFFFFFFFFFFFFFFFFFFFFFFFFF MUL NOT AND SWAP1 DUP4 PUSH20 0xFFFFFFFFFFFFFFFFFFFFFFFFFFFFFFFFFFFFFFFF AND MUL OR SWAP1 SSTORE POP PUSH1 0x20 DUP3 ADD MLOAD DUP2 PUSH1 0x1 ADD SSTORE PUSH1 0x40 DUP3 ADD MLOAD DUP2 PUSH1 0x2 ADD SSTORE SWAP1 POP POP CALLER PUSH20 0xFFFFFFFFFFFFFFFFFFFFFFFFFFFFFFFFFFFFFFFF AND DUP2 PUSH32 0x1F318ACEF5819B645A14C95448C0950EA9C57711E0CD0FAACC6B972C33540D6 PUSH1 0x40 MLOAD PUSH1 0x40 MLOAD DUP1 SWAP2 SUB SWAP1 LOG3 POP JUMP JUMPDEST PUSH1 0x0 DUP1 PUSH1 0x0 DUP1 PUSH1 0x0 DUP1 DUP7 DUP2 MSTORE PUSH1 0x20 ADD SWAP1 DUP2 MSTORE PUSH1 0x20 ADD PUSH1 0x0 KECCAK256 PUSH1 0x40 MLOAD DUP1 PUSH1 0x60 ADD PUSH1 0x40 MSTORE SWAP1 DUP2 PUSH1 0x0 DUP3 ADD PUSH1 0x0 SWAP1 SLOAD SWAP1 PUSH2 0x100 EXP SWAP1 DIV PUSH20 0xFFFFFFFFFFFFFFFFFFFFFFFFFFFFFFFFFFFFFFFF AND PUSH20 0xFFFFFFFFFFFFFFFFFFFFFFFFFFFFFFFFFFFFFFFF AND PUSH20 0xFFFFFFFFFFFFFFFFFFFFFFFFFFFFFFFFFFFFFFFF AND DUP2 MSTORE PUSH1 0x20 ADD PUSH1 0x1 DUP3 ADD SLOAD DUP2 MSTORE PUSH1 0x20 ADD PUSH1 0x2 DUP3 ADD SLOAD DUP2 MSTORE POP POP SWAP1 POP DUP1 PUSH1 0x0 ADD MLOAD DUP2 PUSH1 0x20 ADD MLOAD DUP3 PUSH1 0x40 ADD MLOAD SWAP4 POP SWAP4 POP SWAP4 POP POP SWAP2 SWAP4 SWAP1 SWAP3 POP JUMP JUMPDEST CALLER PUSH20 0xFFFFFFFFFFFFFFFFFFFFFFFFFFFFFFFFFFFFFFFF AND PUSH1 0x0 DUP1 DUP4 DUP2 MSTORE PUSH1 0x20 ADD SWAP1 DUP2 MSTORE PUSH1 0x20 ADD PUSH1 0x0 KECCAK256 PUSH1 0x0 ADD PUSH1 0x0 SWAP1 SLOAD SWAP1 PUSH2 0x100 EXP SWAP1 DIV PUSH20 0xFFFFFFFFFFFFFFFFFFFFFFFFFFFFFFFFFFFFFFFF AND PUSH20 0xFFFFFFFFFFFFFFFFFFFFFFFFFFFFFFFFFFFFFFFF AND EQ PUSH2 0x413 JUMPI PUSH1 0x40 MLOAD PUSH32 0x8C379A000000000000000000000000000000000000000000000000000000000 DUP2 MSTORE PUSH1 0x4 ADD PUSH2 0x40A SWAP1 PUSH2 0x68E JUMP JUMPDEST PUSH1 0x40 MLOAD DUP1 SWAP2 SUB SWAP1 REVERT JUMPDEST PUSH1 0x0 DUP1 PUSH1 0x0 DUP4 DUP2 MSTORE PUSH1 0x20 ADD SWAP1 DUP2 MSTORE PUSH1 0x20 ADD PUSH1 0x0 KECCAK256 PUSH1 0x2 ADD SLOAD EQ PUSH2 0x46B JUMPI PUSH1 0x40 MLOAD PUSH32 0x8C379A000000000000000000000000000000000000000000000000000000000 DUP2 MSTORE PUSH1 0x4 ADD PUSH2 0x462 SWAP1 PUSH2 0x6FA JUMP JUMPDEST PUSH1 0x40 MLOAD DUP1 SWAP2 SUB SWAP1 REVERT JUMPDEST TIMESTAMP PUSH1 0x0 DUP1 DUP4 DUP2 MSTORE PUSH1 0x20 ADD SWAP1 DUP2 MSTORE PUSH1 0x20 ADD PUSH1 0x0 KECCAK256 PUSH1 0x2 ADD DUP2 SWAP1 SSTORE POP CALLER PUSH20 0xFFFFFFFFFFFFFFFFFFFFFFFFFFFFFFFFFFFFFFFF AND DUP2 PUSH32 0xD583933AECA95BC15DEB9EC8CBFB68DDE382B5F3E2D26D7A331E7D7E62D3732D PUSH1 0x40 MLOAD PUSH1 0x40 MLOAD DUP1 SWAP2 SUB SWAP1 LOG3 POP JUMP JUMPDEST PUSH1 0x0 DUP1 REVERT JUMPDEST PUSH1 0x0 DUP2 SWAP1 POP SWAP2 SWAP1 POP JUMP JUMPDEST PUSH2 0x4E4 DUP2 PUSH2 0x4D1 JUMP JUMPDEST DUP2 EQ PUSH2 0x4EF JUMPI PUSH1 0x0 DUP1 REVERT JUMPDEST POP JUMP JUMPDEST PUSH1 0x0 DUP2 CALLDATALOAD SWAP1 POP PUSH2 0x501 DUP2 PUSH2 0x4DB JUMP JUMPDEST SWAP3 SWAP2 POP POP JUMP JUMPDEST PUSH1 0x0 PUSH1 0x20 DUP3 DUP5 SUB SLT ISZERO PUSH2 0x51D JUMPI PUSH2 0x51C PUSH2 0x4CC JUMP JUMPDEST JUMPDEST PUSH1 0x0 PUSH2 0x52B DUP5 DUP3 DUP6 ADD PUSH2 0x4F2 JUMP JUMPDEST SWAP2 POP POP SWAP3 SWAP2 POP POP JUMP JUMPDEST PUSH1 0x0 PUSH20 0xFFFFFFFFFFFFFFFFFFFFFFFFFFFFFFFFFFFFFFFF DUP3 AND SWAP1 POP SWAP2 SWAP1 POP JUMP JUMPDEST PUSH1 0x0 PUSH2 0x55F DUP3 PUSH2 0x534 JUMP JUMPDEST SWAP1 POP SWAP2 SWAP1 POP JUMP JUMPDEST PUSH2 0x56F DUP2 PUSH2 0x554 JUMP JUMPDEST DUP3 MSTORE POP POP JUMP JUMPDEST PUSH1 0x0 DUP2 SWAP1 POP SWAP2 SWAP1 POP JUMP JUMPDEST PUSH2 0x588 DUP2 PUSH2 0x575 JUMP JUMPDEST DUP3 MSTORE POP POP JUMP JUMPDEST PUSH1 0x0 PUSH1 0x60 DUP3 ADD SWAP1 POP PUSH2 0x5A3 PUSH1 0x0 DUP4 ADD DUP7 PUSH2 0x566 JUMP JUMPDEST PUSH2 0x5B0 PUSH1 0x20 DUP4 ADD DUP6 PUSH2 0x57F JUMP JUMPDEST PUSH2 0x5BD PUSH1 0x40 DUP4 ADD DUP5 PUSH2 0x57F JUMP JUMPDEST SWAP5 SWAP4 POP POP POP POP JUMP JUMPDEST PUSH1 0x0 DUP3 DUP3 MSTORE PUSH1 0x20 DUP3 ADD SWAP1 POP SWAP3 SWAP2 POP POP JUMP JUMPDEST PUSH32 0x436572746966696361746520616C726561647920657869737473000000000000 PUSH1 0x0 DUP3 ADD MSTORE POP JUMP JUMPDEST PUSH1 0x0 PUSH2 0x60C PUSH1 0x1A DUP4 PUSH2 0x5C5 JUMP JUMPDEST SWAP2 POP PUSH2 0x617 DUP3 PUSH2 0x5D6 JUMP JUMPDEST PUSH1 0x20 DUP3 ADD SWAP1 POP SWAP2 SWAP1 POP JUMP JUMPDEST PUSH1 0x0 PUSH1 0x20 DUP3 ADD SWAP1 POP DUP2 DUP2 SUB PUSH1 0x0 DUP4 ADD MSTORE PUSH2 0x63B DUP2 PUSH2 0x5FF JUMP JUMPDEST SWAP1 POP SWAP2 SWAP1 POP JUMP JUMPDEST PUSH32 0x4F6E6C7920746865206973737565722063616E207265766F6B65000000000000 PUSH1 0x0 DUP3 ADD MSTORE POP JUMP JUMPDEST PUSH1 0x0 PUSH2 0x678 PUSH1 0x1A DUP4 PUSH2 0x5C5 JUMP JUMPDEST SWAP2 POP PUSH2 0x683 DUP3 PUSH2 0x642 JUMP JUMPDEST PUSH1 0x20 DUP3 ADD SWAP1 POP SWAP2 SWAP1 POP JUMP JUMPDEST PUSH1 0x0 PUSH1 0x20 DUP3 ADD SWAP1 POP DUP2 DUP2 SUB PUSH1 0x0 DUP4 ADD MSTORE PUSH2 0x6A7 DUP2 PUSH2 0x66B JUMP JUMPDEST SWAP1 POP SWAP2 SWAP1 POP JUMP JUMPDEST PUSH32 0x416C7265616479207265766F6B65640000000000000000000000000000000000 PUSH1 0x0 DUP3 ADD MSTORE POP JUMP JUMPDEST PUSH1 0x0 PUSH2 0x6E4 PUSH1 0xF DUP4 PUSH2 0x5C5 JUMP JUMPDEST SWAP2 POP PUSH2 0x6EF DUP3 PUSH2 0x6AE JUMP JUMPDEST PUSH1 0x20 DUP3 ADD SWAP1 POP SWAP2 SWAP1 POP JUMP JUMPDEST PUSH1 0x0 PUSH1 0x20 DUP3 ADD SWAP1 POP DUP2 DUP2 SUB PUSH1 0x0 DUP4 ADD MSTORE PUSH2 0x713 DUP2 PUSH2 0x6D7 JUMP JUMPDEST SWAP1 POP SWAP2 SWAP1 POP JUMP INVALID LOG2 PUSH5 0x6970667358 0x22 SLT KECCAK256 MSTORE GASPRICE BLOCKHASH PUSH31 0x97BDAB339A88287887F0A3B27FBE3CF3FCA3CABB1273297F5BE143D664736F PUSH13 0x63430008180033000000000000 "},"methodIdentifiers":{"issue(bytes32)":"0f75e81f","records(bytes32)":"01e64725","revoke(bytes32)":"b75c7dc6","verify(bytes32)":"75e36616"}}}}}