{
  "_format": "hh-sol-artifact-1",
  "contractName": "CertChainRegistry",
  "sourceName": "contracts/CertChainRegistry.sol",
  "abi": [
    {
      "anonymous": false,
      "inputs": [
        {
          "indexed": true,
          "internalType": "bytes32",
          "name": "certHash",
          "type": "bytes32"
        },
        {
          "indexed": true,
          "internalType": "address",
          "name": "issuer",
          "type": "address"
        }
      ],
      "name": "CertIssued",
      "type": "event"
    },
    {
      "anonymous": false,
      "inputs": [
        {
          "indexed": true,
          "internalType": "bytes32",
          "name": "certHash",
          "type": "bytes32"
        },
        {
          "indexed": true,
          "internalType": "address",
          "name": "issuer",
          "type": "address"
        }
      ],
      "name": "CertRevoked",
      "type": "event"
    },
    {
      "inputs": [
        {
          "internalType": "bytes32",
          "name": "certHash",
          "type": "bytes32"
        }
      ],
      "name": "issue",
      "outputs": [],
      "stateMutability": "nonpayable",
      "type": "function"
    },
    {
      "inputs": [
        {
          "internalType": "bytes32",
          "name": "",
          "type": "bytes32"
        }
      ],
      "name": "records",
      "outputs": [
        {
          "internalType": "address",
          "name": "issuer",
          "type": "address"
        },
        {
          "internalType": "uint256",
          "name": "issuedAt",
          "type": "uint256"
        },
        {
          "internalType": "uint256",
          "name": "revokedAt",
          "type": "uint256"
        }
      ],
      "stateMutability": "view",
      "type": "function"
    },
    {
      "inputs": [
        {
          "internalType": "bytes32",
          "name": "certHash",
          "type": "bytes32"
        }
      ],
      "name": "revoke",
      "outputs": [],
      "stateMutability": "nonpayable",
      "type": "function"
    },
    {
      "inputs": [
        {
          "internalType": "bytes32",
          "name": "certHash",
          "type": "bytes32"
        }
      ],
      "name": "verify",
      "outputs": [
        {
          "internalType": "address",
          "name": "issuer",
          "type": "address"
        },
        {
          "internalType": "uint256",
          "name": "issuedAt",
          "type": "uint256"
        },
        {
          "internalType": "uint256",
          "name": "revokedAt",
          "type": "uint256"
        }
      ],
      "stateMutability": "view",
      "type": "function"
    }
  ],
  "bytecode": "0x608060405234801561001057600080fd5b50610750806100206000396000f3fe608060405234801561001057600080fd5b506004361061004c5760003560e01c806301e64725146100515780630f75e81f1461008357806375e366161461009f578063b75c7dc6146100d1575b600080fd5b61006b60048036038101906100669190610507565b6100ed565b60405161007a9392919061058e565b60405180910390f35b61009d60048036038101906100989190610507565b610137565b005b6100b960048036038101906100b49190610507565b6102c4565b6040516100c89392919061058e565b60405180910390f35b6100eb60048036038101906100e69190610507565b610370565b005b60006020528060005260406000206000915090508060000160009054906101000a900473ffffffffffffffffffffffffffffffffffffffff16908060010154908060020154905083565b600073ffffffffffffffffffffffffffffffffffffffff1660008083815260200190815260200160002060000160009054906101000a900473ffffffffffffffffffffffffffffffffffffffff1673ffffffffffffffffffffffffffffffffffffffff16146101db576040517f08c379a00000000000000000000000000000000000000000000000000000000081526004016101d290610622565b60405180910390fd5b60405180606001604052803373ffffffffffffffffffffffffffffffffffffffff168152602001428152602001600081525060008083815260200190815260200160002060008201518160000160006101000a81548173ffffffffffffffffffffffffffffffffffffffff021916908373ffffffffffffffffffffffffffffffffffffffff16021790555060208201518160010155604082015181600201559050503373ffffffffffffffffffffffffffffffffffffffff16817f01f318acef5819b645a14c95448c0950ea9c57711e0cd0faacc6b972c33540d660405160405180910390a350565b6000806000806000808681526020019081526020016000206040518060600160405290816000820160009054906101000a900473ffffffffffffffffffffffffffffffffffffffff1673ffffffffffffffffffffffffffffffffffffffff1673ffffffffffffffffffffffffffffffffffffffff168152602001600182015481526020016002820154815250509050806000015181602001518260400151935093509350509193909250565b3373ffffffffffffffffffffffffffffffffffffffff1660008083815260200190815260200160002060000160009054906101000a900473ffffffffffffffffffffffffffffffffffffffff1673ffffffffffffffffffffffffffffffffffffffff1614610413576040517f08c379a000000000000000000000000000000000000000000000000000000000815260040161040a9061068e565b60405180910390fd5b6000806000838152602001908152602001600020600201541461046b576040517f08c379a0000000000000000000000000000000000000000000000000000000008152600401610462906106fa565b60405180910390fd5b42600080838152602001908152602001600020600201819055503373ffffffffffffffffffffffffffffffffffffffff16817fd583933aeca95bc15deb9ec8cbfb68dde382b5f3e2d26d7a331e7d7e62d3732d60405160405180910390a350565b600080fd5b6000819050919050565b6104e4816104d1565b81146104ef57600080fd5b50565b600081359050610501816104db565b92915050565b60006020828403121561051d5761051c6104cc565b5b600061052b848285016104f2565b91505092915050565b600073ffffffffffffffffffffffffffffffffffffffff82169050919050565b600061055f82610534565b9050919050565b61056f81610554565b82525050565b6000819050919050565b61058881610575565b82525050565b60006060820190506105a36000830186610566565b6105b0602083018561057f565b6105bd604083018461057f565b949350505050565b600082825260208201905092915050565b7f436572746966696361746520616c726561647920657869737473000000000000600082015250565b600061060c601a836105c5565b9150610617826105d6565b602082019050919050565b6000602082019050818103600083015261063b816105ff565b9050919050565b7f4f6e6c7920746865206973737565722063616e207265766f6b65000000000000600082015250565b6000610678601a836105c5565b915061068382610642565b602082019050919050565b600060208201905081810360008301526106a78161066b565b9050919050565b7f416c7265616479207265766f6b65640000000000000000000000000000000000600082015250565b60006106e4600f836105c5565b91506106ef826106ae565b602082019050919050565b60006020820190508181036000830152610713816106d7565b905091905056fea2646970667358221220523a407e97bdab339a88287887f0a3b27fbe3cf3fca3cabb1273297f5be143d664736f6c63430008180033",
  "linkReferences": {},
  "deployedLinkReferences": {}
}